:100000000C9461000C947E000C947E000C947E0095
:100010000C947E000C947E000C947E000C947E0068
:100020000C947E000C947E000C947E000C947E0058
:100030000C947E000C947E000C947E000C947E0048
:100040000C94FC000C947E000C947E000C947E00BA
:100050000C947E000C947E000C947E000C947E0028
:100060000C947E000C947E00000000002500280007
:100070002B0000000000240027002A0000000000E0
:1000800023002600290004040404040404040202DA
:100090000202020203030303030301020408102007
:1000A0004080010204081020010204081020000012
:1000B0000008000201000003040700000000000027
:1000C000000011241FBECFEFD8E0DEBFCDBF11E08E
:1000D000A0E0B1E0E2EEF4E002C005900D92A8309D
:1000E000B107D9F721E0A8E0B1E001C01D92A3312A
:1000F000B207E1F70E9446010C946F020C940000D5
:10010000833081F028F4813099F08230A9F008958D
:100110008730A9F08830C9F08430B1F48091800034
:100120008F7D03C0809180008F7780938000089539
:1001300084B58F7784BD089584B58F7DFBCF809182
:10014000B0008F778093B00008958091B0008F7DCC
:10015000F9CF1F93CF93DF93282F30E0F901E255B9
:10016000FF4F8491F901E656FF4FD491F901EA5708
:10017000FF4FC491CC23A9F0162F81110E9480005B
:10018000EC2FF0E0EE0FFF1FE859FF4FA591B4915F
:100190008FB7F894EC91111108C0D095DE23DC9351
:1001A0008FBFDF91CF911F910895DE2BF8CF3FB71E
:1001B000F89480910D0190910E01A0910F01B091E2
:1001C000100126B5A89B05C02F3F19F00196A11D6F
:1001D000B11D3FBFBA2FA92F982F8827BC01CD0191
:1001E000620F711D811D911D42E0660F771F881FF0
:1001F000991F4A95D1F708951F920F920FB60F924B
:1002000011242F933F938F939F93AF93BF9380912C
:10021000090190910A01A0910B01B0910C0130915C
:10022000080123E0230F2D3758F50196A11DB11DBC
:10023000209308018093090190930A01A0930B0178
:10024000B0930C0180910D0190910E01A0910F01CE
:10025000B09110010196A11DB11D80930D019093E5
:100260000E01A0930F01B0931001BF91AF919F9128
:100270008F913F912F910F900FBE0F901F90189567
:1002800026E8230F0296A11DB11DD2CF789484B524
:10029000826084BD84B5816084BD85B5826085BD82
:1002A00085B5816085BD80916E00816080936E0010
:1002B0001092810080918100826080938100809102
:1002C00081008160809381008091800081608093B3
:1002D00080008091B10084608093B1008091B00073
:1002E00081608093B00080917A00846080937A006E
:1002F00080917A00826080937A0080917A00816098
:1003000080937A0080917A00806880937A001092BE
:10031000C10074EA872E70E0972EF4012491C0E9A1
:10032000D0E0FE0184918823C9F090E0880F991FE6
:10033000FC01EE58FF4FA591B491FC01E859FF4F25
:10034000459154919FB7F8943C91822F80958323D7
:100350008C93FA018081282B20839FBFA0E0B1E01D
:1003600028E031E08D919D919927FC01E656FF4FE1
:1003700044918A579F4FFC0184918823A1F090E01B
:10038000880F991FFC01EE58FF4F65917491FC0195
:10039000E859FF4F859194918FB7F894FB019081B4
:1003A000492B40838FBF2A173B07E1F644E0A42E78
:1003B000B12C00E010E0E8EBF0E08491F401F4905F
:1003C000FE01E490E1104DC0809111019091120165
:1003D0000196B5010E9447027C019093120180931F
:1003E0001101181619064CF4FC01EE0FFF1FE25024
:1003F000FF4F60E080810E94A900F701EE0FFF1F10
:10040000E050FF4F308061E0832D0E94A9000E94E0
:10041000D7002B013C019CE2C92EDD24D394E12CB2
:10042000F12C0E94D7006419750986099709683E66
:10043000734081059105A8F3F1E0CF1AD108E108D6
:10044000F10828EE420E23E0521E611C711CC114FB
:10045000D104E104F10429F760E0832D0E94A90092
:100460000FC081110E948000EE2DF0E0EE0FFF1F03
:10047000E458FF4FA591B4918C91F82209F4A4CFD0
:100480000115110509F497CF0E94000094CF97FB46
:10049000072E16F4009407D077FD09D00E945B0266
:1004A00007FC05D03EF4909581959F4F0895709577
:1004B00061957F4F0895AA1BBB1B51E107C0AA1F7E
:1004C000BB1FA617B70710F0A61BB70B881F991FF5
:1004D0005A95A9F780959095BC01CD010895F8949F
:0204E000FFCF4C
:0804E2000700060005000400FC
:00000001FF
