:020000040000FA
:1000000044C05EC05DC05CC05BC05AC059C058C02F
:1000100057C0BBC055C054C053C052C051C050C0DF
:100020004FC04EC04DC00000000038003500320007
:1000300000000000370034003100000000003600EE
:100040003300300004040404040404040202020225
:100050000202030303030303020203010204081064
:1000600020408001020408102001020408102040F2
:1000700080400000000000000000000405070000B0
:100080000000000000000000000011241FBECFE5AA
:10009000D4E0DEBFCDBF10E0A0E6B0E0E6E0F4E0E3
:1000A00002C005900D92A836B107D9F720E0A8E666
:1000B000B0E001C01D92A337B207E1F7B0D0A1C1F3
:1000C0009FCF853041F0873049F0843051F48FB5AF
:1000D0008F778FBD08958FB58F7DFBCF85B58F7DD1
:1000E00085BD08951F93CF93DF93282F30E0F9014A
:1000F000EE58FF4F8491F901E55AFF4FD491F90171
:10010000EC5BFF4FC491CC23A1F0162F8111D9DFF6
:10011000EC2FF0E0EE0FFF1FEA5DFF4FA591B491C9
:100120008FB7F894EC91111108C0D095DE23DC93C1
:100130008FBFDF91CF911F910895DE2BF8CF3FB78E
:10014000F89480916D0090916E00A0916F00B09135
:10015000700022B708B600FE05C02F3F19F00196C7
:10016000A11DB11D3FBFBA2FA92F982F8827BC0111
:10017000CD01620F711D811D911D46E0660F771F35
:10018000881F991F4A95D1F708951F920F920FB6B5
:100190000F9211242F933F938F939F93AF93BF930D
:1001A0008091690090916A00A0916B00B0916C0001
:1001B0003091680020E3230F2D3768F123EB230FE4
:1001C0004196A11DB11D2093680080936900909312
:1001D0006A00A0936B00B0936C0080916D009091C9
:1001E0006E00A0916F00B09170000196A11DB11D2D
:1001F00080936D0090936E00A0936F00B093700099
:10020000BF91AF919F918F913F912F910F900FBE12
:100210000F901F9018954096A11DB11DD4CF7894D2
:1002200083B7836083BF89B7816089BF82E08EBD59
:100230008FB581608FBD85B5846085BD85B58064CF
:1002400085BD83E886B91AB875E6872E70E0972ECB
:10025000F4012491CEE4D0E0FE0184918823C9F01A
:1002600090E0880F991FFC01E05DFF4FA591B491CC
:10027000FC01EA5DFF4F459154919FB7F8943C9182
:10028000822F809583238C93FA018081282B2083F1
:100290009FBFA0E6B0E028E630E08D919D919927C0
:1002A000FC01E55AFF4F44918C5B9F4FFC01849108
:1002B0008823A1F090E0880F991FFC01E05DFF4FBB
:1002C00065917491FC01EA5DFF4F859194918FB720
:1002D000F894FB019081492B40838FBF2A173B077D
:1002E000E1F644E0A42EB12C00E010E0ECE7F0E0F1
:1002F0008491F401F490FE01E490E11047C08091F4
:100300007100909172000196B50154D07C019093D8
:100310007200809371001816190644F4FC01EE0F68
:10032000FF1FE25AFF4F60E08081DCDEF701EE0F35
:10033000FF1FE05AFF4F308061E0832DD3DEFFDEE8
:100340002B013C019CE2C92EDD24D394E12CF12C3D
:10035000F6DE6419750986099709683E73408105C0
:100360009105B0F3F1E0CF1AD108E108F10828EEC9
:10037000420E23E0521E611C711CC114D104E10421
:10038000F10431F760E0832DADDE0EC0811199DEFE
:10039000EE2DF0E0EE0FFF1FE65CFF4FA591B4914C
:1003A0008C91F82209F4ABCF0115110509F49ECF09
:1003B00027DE9CCF97FB072E16F4009406D077FD1E
:1003C00008D00BD007FC05D03EF4909581959F4F47
:1003D0000895709561957F4F0895AA1BBB1B51E14D
:1003E00007C0AA1FBB1FA617B70710F0A61BB70BA5
:1003F000881F991F5A95A9F780959095BC01CD014A
:0E0400000895F894FFCF0700060005000400E1
:101E800011248FE594E09EBF8DBF24B614BE80E080
:101E90007AD021FEC7C08EE076D0AFE7BFEF809941
:101EA000FECF9096809BFDCFB9B91197F1F782E0F4
:101EB0008BB988E18AB957D0C82F823559F467D0D9
:101EC000E0E8FEE1E054F109A89583E085D0309781
:101ED000C9F742C08D7F09F551D0D82F182F80E661
:101EE000E82EF12C40D0D7018D937D011150D1F710
:101EF0004ED0C1110EC0A0E6B0E0E199FECFFFBB0D
:101F0000EEBB8D918DBBE29AE19A3196D150A9F743
:101F100023C0A0E6B0E045D01FC0C33041F42ED0AE
:101F2000C82F35D085911BD0C150E1F715C0C13005
:101F300071F424D0C82F2BD0E199FECFFFBBEEBBAC
:101F4000E09A8DB30CD03196C150B1F705C0C135C0
:101F500011F488E018D01BD08DE201D0ACCF5D9B8E
:101F6000FECF8CB90895C59ABD9A8BB187FFFDCF7E
:101F700084FD10C0A8958CB1C5980895F4DFE82FB2
:101F8000F2DFF82FF0CF98E191BD81BD0895EBDF2E
:101F9000803219F088E0F7DFFFCF80EAE0CFFB0165
:101FA000DC0160E46A0F9F01E0388EE1F807C8F4B5
:101FB00083E012D0309629F48FE38D938FEC8C93CD
:101FC000119781E00D901D9007D03296A613FACF9D
:101FD000F90185E001D081E187BFE89507B600FCF3
:061FE000FDCF112408955D
:061FFA000612D0CFE73F04
:00000001FF
