:100000000AC008C007C006C005C004C003C002C0C3
:1000100001C000C01895112410E0A0E6B0E0E0E6B1
:10002000F1E002C005900D92A836B107D9F720E0A3
:10003000A8E6B0E001C01D92AA36B207E1F77894B5
:10004000BD98C59AE0E6F0E028E630E061E070E0B7
:100050004191519187B3DB0102C0AA0FBB1F4A95A2
:10006000E2F78A2B87BB2E173F0791F7C4E0D0E059
:1000700021E030E0B599FECF809168009091690051
:100080000196BE0146D090936900809368001816CF
:10009000190684F448B3880F991FFC01E25AFF4FF8
:1000A000C901008002C0880F991F0A94E2F7809569
:1000B000842388BB88B3E0916800F0916900EE0F5B
:1000C000FF1FE05AFF4FA901008002C0440F551FD7
:1000D0000A94E2F7842B88BB8DE291E004C0BAE277
:1000E000BA95F1F700C00197D1F748B3E0916800E5
:1000F000F0916900EE0FFF1FE05AFF4FC901008029
:1001000002C0880F991F0A94E2F78095842388BB68
:10011000B1CF97FB072E16F4009406D077FD08D0D8
:100120000BD007FC05D03EF4909581959F4F089524
:10013000709561957F4F0895AA1BBB1B51E107C0C5
:10014000AA1FBB1FA617B70710F0A61BB70B881F67
:10015000991F5A95A9F780959095BC01CD010895F6
:0801600001000200030004008D
:00000001FF
